:020000040800F2
:10000000B0050020D1000008451A0008D1180008EA
:1000100000000000000000000000000000000000E0
:10002000000000000000000000000000491A000865
:100030000000000000000000471A00084B1A0008EA
:10004000E3000008E3000008E3000008E300000804
:10005000E3000008E3000008E3000008E3000008F4
:10006000891B0008E3000008E3000008E300000823
:10007000E3000008E3000008E3000008E3000008D4
:10008000E3000008E300000800000000E3000008AF
:10009000E3000008C91A0008E3000008E3000008B4
:1000A000E3000008E3000008E3000008E3000008A4
:1000B000E300000800000000E30000080348854654
:1000C00000F03AF90048004795230008B0050020E9
:1000D0000448804704480047FEE7FEE7FEE7FEE7E6
:1000E000FEE7FEE7C51A0008BD00000830B50B4664
:1000F000014600202022012409E00D46D5409D4202
:1001000005D31D469540491B254695404019154687
:10011000521E002DF1DC30BDF0B51FB406460020A4
:1001200082B005464024019100901BE001992246CF
:100130000F46304600F020F8049A059B801A99413A
:1001400010D310461946224600F0A4F8361A8F4103
:100150000197224601200021009F00F09BF83818EB
:100160004D4100902046641E0028DFDC019B009872
:100170002946324607B0F0BD10B5202A04DB0846F8
:10018000203AD040002110BD0B46D340D04020245F
:10019000A21A91400843194610BD00000549064ABD
:1001A00008685043054A80180860400870470149B4
:1001B00008607047280000206D4EC64139300000AD
:1001C000D2B201E00270401C491EFBD270470022EF
:1001D000F6E710B513460A4604461946FFF7F0FF46
:1001E000204610BD024670B54A40D30FDB074000E1
:1001F0002DD04A002AD0010E140E00021202091955
:10020000400A520A8418E50104465443000A120ABF
:100210002E045043A4194219200CC543AA18120CED
:100220000125AD03521C521912047F39240400D059
:10023000521C104301D44000491EC2B20C06C00932
:100240002018401C4008802A02D003E0002070BD26
:1002500040084000002900DA0020184370BD10B5A6
:1002600000229623114600F02DF810BD41004002F7
:100270000122400AD205090E80187F2901DA0020E8
:100280007047962903DC9622511AC8407047963968
:100290008840704710B5202A04DB0146203A91407F
:1002A000002010BD914020239C1A0346E3401943CF
:1002B000904010BD002904DA401C490001D14008DB
:1002C0004000704770B40024050C05D110240004D0
:1002D00002D1002921D01124050E01D100020834D9
:1002E000050F01D10001241D850F01D18000A41C40
:1002F000002801DB4000641C002908D020252E1BAB
:100300000D46F540A14000D00121294308430106D4
:100310001B1B000ADB1D02D5002070BC7047DB05EB
:10032000181880180029F8DA401C4900F5D170BC73
:100330004008400070470000064C0125064E05E0CD
:10034000E36807CC2B430C3C98471034B442F7D3F6
:10035000FFF7B8FE90280008B028000810B5044642
:1003600001200749886002200860204601F0C5F896
:10037000204601F0E7F900200249087010BD000096
:100380005C000020000000207047000070B50446AB
:1003900000F00CF906462546681C002802D00548E6
:1003A00000782D1800BF00F001F9801BA842FAD395
:1003B00070BD00002000002078B503460022DDE07B
:1003C000012696400C683440002C7DD04D68022DEB
:1003D00002D04D68122D15D1D508AE001D4620352E
:1003E000A8595507EE0E0F25B5400646AE433046D8
:1003F0005607F60E0D69B5402843D508AD001E46D8
:1004000020367051186856000325B5400646AE43A5
:1004100030460D79AD07AD0F5600B5402843186042
:100420004D68012D08D04D68022D05D04D68112D65
:1004300002D04D68122D18D1986856000325B5409A
:100440000646AE4330465600CD68B5402843986016
:100450005868012595400646AE43304610264D6843
:1004600035402D09954028435860D868560003252B
:10047000B5400646AE43304656008D68B540284329
:10048000D860012636074D683540B54275D100BFAA
:100490003D4DAD69012635433B4EB5613546AD69ED
:1004A000ED07ED0F009500BF00BF384D9608B60070
:1004B000A85995072E0F0F25B5400646AE43304686
:1004C0000925ED06AB4200E057E001D100250FE021
:1004D0002F4DAB4201D101250AE02E4DAB4201D197
:1004E000022505E02C4DAB4201D1032500E0052596
:1004F0009607360FB5402843244D9608B600A851FC
:10050000264D28680546A5432846012636044D6831
:100510003540B54202D10546254328461F4D286087
:1005200068680546A5432846012676044D6835408F
:10053000B54202D1054625432846184D6860A86893
:100540000546A5432846012636054D683540B54287
:1005500002D1054625432846104DA860E8680546A7
:10056000A5432846012676054D683540B54202D19F
:10057000054625432846094DE860521C0D68D540C4
:10058000002D00D01CE778BD00100240080001409B
:100590000004004800080048000C00480004014026
:1005A000002A01D0816100E0816270470148006843
:1005B00070470000180000200348006803490978CC
:1005C00040180149086070471800002020000020F2
:1005D00010B506480068102108430449086000204F
:1005E00000F006F800F02EF8002010BD00200240B8
:1005F00070B50446104801787D20C000FFF776FDF5
:10060000064631460D480068FFF770FD054600F0CC
:1006100003FD002801D0012070BD042C07D2002268
:100620002146501E00F03CF80548046001E001201E
:10063000F2E70020F0E70000200000202400002066
:100640001C00002008B500BF0D4880690121084347
:100650000B49886108468069C007C00F009000BF41
:1006600000BF00BF0846C069090408430449C861C7
:100670000846C06909040840009000BF00BF08BDDB
:10068000001002400146002905DBCB06DB0E0122EB
:100690009A40024B1A6000BF7047000000E100E082
:1006A00070B504460D4616462946204601F09EFCCC
:1006B00070BD0000F8B5044600260025012109049C
:1006C0002068084088427AD100275248C06909034F
:1006D000084000280DD100BF4E48C06908434D496D
:1006E000C8610846C06909040840009000BF00BF07
:1006F000012749480068FF2101310840002816D130
:1007000045480068084344490860FFF74FFF064624
:1007100006E0FFF74BFF801B642801D90320F8BDDA
:100720003D480068FF21013108400028F1D03948D8
:10073000006A0321090208400546002D2DD060689B
:100740000840A84229D03348006A8843054631480A
:10075000006A0121090408432E4908620846006A1C
:100760000121090488432B49086208460562E8070D
:10077000C00F002811D0FFF719FF064607E0FFF76A
:1007800015FF801B2549884201D90320C7E721486E
:10079000006A022108400028F1D01E48006A0321A7
:1007A00009028843616808431A490862012F05D18C
:1007B0000846C069090488431649C86100BF20780B
:1007C000C007C00F002807D01248006B80088000C7
:1007D000A16808430F4908632021206808402028A9
:1007E00007D10C48006B10218843E1680843094990
:1007F00008630121890220680840884207D1054822
:10080000006B4021884321690843024908630020A6
:1008100085E70000001002400070004088130000CF
:1008200070B504460D46002C01D1012070BD524820
:100830000068C007C00FA8420ED24F4800684008A9
:10084000400028434C49086008460068C007C00FB4
:10085000A84201D00120E9E70221206808400228CF
:1008600014D1042120680840042807D14348406877
:100870000721090288434018404948603F484068C2
:10088000F0218843A16808433C4948602078C007AC
:10089000C00F00283BD06068012808D137480068A5
:1008A000012149040840002815D10120BEE76068F5
:1008B000022808D131480068012149060840002873
:1008C00009D10120B2E72D48006802210840002824
:1008D00001D10120AAE729484068800880006168AA
:1008E000084326494860FFF761FE064607E0FFF728
:1008F0005DFE801B2249884201D9032096E71F48EC
:1009000040680C210840616889008842EFD11A488C
:100910000068C007C00FA8420ED9174800684008F9
:10092000400028431449086008460068C007C00F0B
:10093000A84201D0012079E704212068084004285A
:1009400008D10E484068072109028843E16808433E
:100950000A49486000F032F808494968F02211401D
:100960000909084A515CC840074908600020FFF7A0
:100970003FFE00205AE70000002002400010024025
:10098000881300007828000824000020014800682F
:10099000704700002400002000B5FFF7F7FF05496D
:1009A0004968072212021140090A034A515CC840F3
:1009B00000BD00000010024088280008F0B589B092
:1009C00027A001460EC9C06805AC0EC4089028A037
:1009D00001460EC9C06801AC0EC404900024002575
:1009E0000027002600200090254844680C20204065
:1009F00000282DD0042802D0082828D102E0214860
:100A0000009028E00F2080042040800C05A90E5C97
:100A10001B48C06A0007000F01A90D5C01200004FB
:100A200020400121090488420AD12A4600231548A2
:100A30001946FFF771FB314601F0C0FA074604E0A2
:100A40001148314601F0BAFA0746009703E000BFAB
:100A50000C48009000BF00BF009809B0F0BD000036
:100A600002030405060708090A0B0C0D0E0F1010EF
:100A70000102030405060708090A0B0C0D0E0F10EE
:100A80000010024000127A0000093D00FEB5044645
:100A9000002C01D10120FEBD2078C007C00F002826
:100AA00071D0FC4840680C21084004280BD0F9485C
:100AB00040680840082812D1F6484068012109041E
:100AC000084088420BD1F3480068012149040840DE
:100AD00000286BD06068002868D10120DBE700BFE8
:100AE0006068012807D1EB48006801210904084328
:100AF000E849086031E0606800280ED1E5480068E8
:100B0000012109048843E34908600846006801217F
:100B100089048843DF4908601FE0606805280ED11A
:100B2000DC480068012189040843DA490860084666
:100B30000068012109040843D64908600DE0D54842
:100B40000068012109048843D2490860084600680A
:100B5000012189048843CF49086000BF60680028EC
:100B600012D0FFF723FD054606E0FFF71FFD401BEF
:100B7000642801D903208EE7C64800680121490492
:100B800008400028F1D011E0FFF710FD054606E00F
:100B9000FFF70CFD401B642801D903207BE7BD480B
:100BA00000680121490408400028F1D10221206891
:100BB0000840022861D1B74840680C21084000284D
:100BC0000BD0B4484068084008281BD1B1484068A1
:100BD000012109040840002814D1AE480068022110
:100BE0000840002804D0E068012801D0012052E725
:100BF000A8480068F82188432169C9000843A5492D
:100C000008603AE0E068002820D0A248006801218E
:100C10000843A0490860FFF7C9FC054606E0FFF756
:100C2000C5FC401B022801D9032034E7994800681D
:100C3000022108400028F2D096480068F821884335
:100C40002169C90008439349086016E0914800688B
:100C5000400840008F490860FFF7A8FC054606E001
:100C6000FFF7A4FC401B022801D9032013E78948A1
:100C70000068022108400028F2D1082120680840BD
:100C8000082831D1E069002817D08248406A012144
:100C9000084380494862FFF789FC054606E0FFF7F4
:100CA00085FC401B022801D90320F4E67948406AFC
:100CB000022108400028F2D016E07648406A400839
:100CC000400074494862FFF771FC054606E0FFF7F3
:100CD0006DFC401B022801D90320DCE66D48406A08
:100CE000022108400028F2D104212068084004288D
:100CF00073D1002001906748C06989060840002828
:100D00000ED100BF6348C06908436249C861084604
:100D1000C06909040840009000BF00BF0120019095
:100D20005D480068FF2101310840002816D15A486B
:100D30000068084358490860FFF738FC054606E09C
:100D4000FFF734FC401B642801D90320A3E6524876
:100D50000068FF21013108400028F1D000BFA068E1
:100D6000012806D14B48006A01210843494908621D
:100D70002BE0A06800280CD14648006A40084000DB
:100D8000444908620846006A0421884341490862D0
:100D90001BE0A06805280CD13E48006A04210843E6
:100DA0003C4908620846006A012108433949086243
:100DB0000BE03848006A400840003649086208469F
:100DC000006A042188433349086200BFA0680028F4
:100DD00013D0FFF7EBFB054608E02BE0FFF7E6FB3F
:100DE000401B2E49884201D9032054E62948006A55
:100DF000022108400028F1D011E0FFF7D7FB05469B
:100E000007E0FFF7D3FB401B2449884201D90320A8
:100E100041E62048006A022108400028F1D10198EB
:100E2000012806D11B48C0690121090788431949D7
:100E3000C86100BF102120680840102860D1606997
:100E400001282DD11348406B042108431149486300
:100E50000846406B012108430E494863FFF7A6FB93
:100E6000054606E0FFF7A2FB401B022801D903203C
:100E700011E60848406B022108400028F2D00548DE
:100E8000406BF8218843A169C900084301494863C0
:100E900036E000000010024000700040881300009F
:100EA0006069401D00280FD15A48406B04218843D7
:100EB000584948630846406BF8218843A169C90036
:100EC0000843544948631BE05248406B04210843DF
:100ED000504948630846406B400840004863FFF7AC
:100EE00065FB054606E0FFF761FB401B022801D9C0
:100EF0000320D0E54748406B022108400028F2D18A
:100F0000206A00284FD0434840680C210840082838
:100F100064D0206A022847D13E48006801210906B2
:100F200088433C490860FFF741FB054606E0FFF7B0
:100F30003DFB401B022801D90320ACE53548006881
:100F40000121490608400028F1D100BF3148C06A9C
:100F500000090001E16A08432E49C862616AA06A7B
:100F600008432C4949683D2212049143084329490A
:100F7000486000BF0846006801210906084325496A
:100F80000860FFF713FB054606E0FFF70FFB401B69
:100F9000022801D903207EE51E4800680121490688
:100FA00008400028F1D033E01A4800680121090602
:100FB000884318490860FFF7F9FA054606E0FFF78D
:100FC000F5FA401B022801D9032064E511480068A6
:100FD0000121490608400028F1D119E0206A0128C2
:100FE00000D158E50B484668C76A0120000430402C
:100FF000616A88420AD13907090FE06A814205D146
:101000000F2080043040A16A884201D0012042E5CF
:10101000002040E50010024070B504462546681ED9
:101020000949884201D901200CE0681E074948613E
:101030000321081F00F0DAFF00200449886107201F
:101040000861002070BD0000FFFFFF0000E000E02D
:101050007047704710B50446002C01D1012010BD27
:101060003D20005D002805D100213C20015520468F
:1010700000F00CF802213D200155211D206800F0F0
:101080002BFD01213D2001550020E8E738B504463D
:101090000E492068884217D100BF0D4880690121A0
:1010A000490408430A4988610846806901214904C6
:1010B0000840009000BF00BF002211461520FFF736
:1010C000EFFA1520FFF7DEFA38BD000000440140BA
:1010D0000010024001460868C068012318430B68ED
:1010E000D860086880684207520F062A05D0086851
:1010F0000068012318430B68186000207047704790
:1011000010B5044620680069022108404008002804
:101110001CD02068C06808404008002816D0481F2E
:101120002168086101202077206880698007800F8E
:10113000002803D02046FFF7E2FF05E0204600F03C
:10114000C3F8204600F0C1F800202077206800692D
:1011500004210840800800281DD02068C06808408D
:101160008008002817D0C843216808610220207732
:1011700020688069032109020840002803D0204626
:10118000FFF7BDFF05E0204600F09EF8204600F086
:101190009CF8002020772068006908210840C008DA
:1011A00000281CD02068C0680840C008002816D05D
:1011B000C84321680861042020772068C06980073F
:1011C000800F002803D02046FFF799FF05E0204656
:1011D00000F07AF8204600F078F8002020772068A8
:1011E000006910210840000900281DD02068C0684F
:1011F00008400009002817D0C8432168086108206A
:1012000020772068C069032109020840002803D024
:101210002046FFF774FF05E0204600F055F8204611
:1012200000F053F80020207720680069C007C00F45
:1012300001214840484000280CD02068C068084080
:1012400048404840002805D0C81E21680861204653
:1012500000F03CF82068006980210840C00900289F
:101260000BD02068C0680840C009002805D0C843DA
:10127000216808612046FFF7EBFE206800694021E5
:101280000840800900280BD02068C0680840800909
:10129000002805D0C84321680861204600F022F8E4
:1012A0002068006920210840400900280BD02068F0
:1012B000C06808404009002805D0C843216808617B
:1012C0002046FFF7C6FE10BD7047704710B50446B4
:1012D00003492068884201D101F028F910BD0000BF
:1012E000004401407047000070B504467A48007819
:1012F000002824D10021204600F0F9F87749086041
:101300007748006800280BD10868FEF7A8FF06465A
:101310007449FEF767FF0546FEF7A8FF70490860AD
:1013200001207149886004200860204600F0E5F83B
:10133000012069490870204600F004FACBE06648B5
:101340000078012824D10021204600F0D0F863491C
:1013500048606348406800280BD14868FEF77FFF6B
:1013600006466049FEF73EFF0546FEF77FFF5C49F3
:10137000486001205C49886008200860204600F031
:10138000BCF8022054490870204600F0DBF9A2E0C6
:1013900051480078022824D10021204600F0A7F807
:1013A0004E4988604E48806800280BD18868FEF757
:1013B00056FF06464B49FEF715FF0546FEF756FF5A
:1013C00047498860102048498860202008602046EE
:1013D00000F093F8032040490870204600F0B2F96D
:1013E00079E03D480078032824D10121204600F00F
:1013F0007EF83A49C8603A48C06800280BD1C868EE
:10140000FEF72DFF06463749FEF7ECFE0546FEF7D0
:101410002DFF3349C86010203349886040200860A0
:10142000204600F06AF804202B490870204600F09E
:1014300089F950E028480078042824D10121204669
:1014400000F055F8254908612548006900280BD1AE
:101450000869FEF704FF06462249FEF7C3FE05466B
:10146000FEF704FF1E49086110201F498860802094
:101470000860204600F041F8052017490870204612
:1014800000F060F927E014480078052823D10121F5
:10149000204600F02CF811494861114840690028A5
:1014A0000BD14869FEF7DBFE06460E49FEF79AFEB1
:1014B0000546FEF7DBFE0A49486101200A498860BB
:1014C00002200860204600F018F800200249087049
:1014D000204600F037F970BD000000202C000020ED
:1014E00044000020CDCC4C3F5C00002070470246F9
:1014F000106834308B00C058704770B504460D46F4
:1015000000BF3D20005D012801D1022070BD0121F6
:101510003D20015500BF20680068022188432168F2
:101520000860696828680843A9680843C0432168BF
:10153000086169682868084321688862A86821688A
:101540000862286800F028FB2168086300BF0021BA
:101550003D20015500BF0020D8E7024600BF3D20D6
:10156000805C012801D10220704701233D20835473
:1015700000BF012906D11068006810239843136842
:10158000186005E01068006810231843136818609D
:1015900000BF00233D20835400BF0020E4E710B5C6
:1015A00004462068C068C007C00F01214840484079
:1015B000002802D00120216888602068C0680221CC
:1015C00008404008002809D00220216888600321D3
:1015D0003C2001552046FFF789FF05E001213C2012
:1015E00001552046FFF780FE10BD10B50446002CC3
:1015F00001D1012010BD3C20005D002805D1002153
:101600003D200155204600F049F802213C200155BB
:10161000012021680860A16860680843218A4904A4
:10162000084361690843A1690843E1690843616AA5
:101630000843A16A084321680968084321680860D3
:10164000207B012806D12068006801210904084395
:1016500021680860616B206B0843A16B0843C0439D
:1016600021680861616B206B0843216888622168EA
:10167000A06B0862206B00F08FFA21680863206875
:1016800040688008800021684860032021688860E5
:1016900001213C2001550020ACE7000010B586B0C8
:1016A0000446142101A8FEF792FD244920688842CF
:1016B00042D100BF22484069012109060843204960
:1016C000486108464069012109060840009000BFB2
:1016D00000BF00BF1A484069C91108431849486152
:1016E00008464069012149040840009000BF00BF3E
:1016F00011200190122002900020039004900320FA
:10170000059001A90920C006FEF756FEEE200190C3
:10171000022002900020039004900320059001A96C
:101720000920C006FEF748FE002211460820FEF7F9
:10173000B7FF0820FEF7A6FF06B010BD004002402C
:1017400000100240014600BF3D20405C012801D14D
:101750000220704701223D20425400BF02223C205B
:10176000425408684068012210430A6850602C20E7
:10177000405C012806D108684068022210430A68CC
:10178000506005E008684068022290430A68506093
:1017900003200A689060086A002806D1086800687B
:1017A000102290430A68106005E008680068102263
:1017B00010430A68106008680068022210430A6833
:1017C000106000BF00223D20425400BF0020C0E74F
:1017D00010B50446002C01D1012010BDA0690028DD
:1017E00000D000E000BF606F002805D1002170200C
:1017F0000155204600F02CF824206067206800681E
:101800004008400021680860204600F087FA01285F
:1018100000D1E2E7606A002802D0204600F0CEF94D
:10182000206840680921C90288432168486020680F
:1018300080682A2188432168886020680068012127
:10184000084321680860204600F030FAC5E7000030
:1018500010B586B00446142101A8FEF7B8FC1A4959
:10186000206888422ED100BF184880690121890371
:1018700008431649886108468069012189030840A8
:10188000009000BF00BF00BF10484069C900084376
:101890000E4948610846406901214904084000900A
:1018A00000BF00BF032040020190022002900020F0
:1018B0000390032004900120059001A90920C0068F
:1018C000FEF77AFD06B010BD00380140001002405E
:1018D00000BFFEE700B587B0142102A8FEF777FC31
:1018E00000BF1F4840690121490408431C49486161
:1018F00008464069012149040840019000BF00BF2B
:1019000000BF174840694900084315494861084627
:101910004069012189040840019000BF00BF0022F6
:1019200010491148FEF73CFEFF2002900120039071
:10193000002004900320059002A90B48FEF73CFD0F
:10194000FF20000202901120039000200490032049
:10195000059002A90448FEF72FFD07B000BD000066
:1019600000100240FFFF00000004004810B50B48C3
:101970000B49086008204860002109488160FF2168
:101980002D31C1600021016141618161FFF762FB7E
:10199000002801D0FEF7F8FC10BD00000044014013
:1019A000A800002010B5144814490860072000075B
:1019B000486001111148816000210173012101611A
:1019C00000214161012109038161C021C161002120
:1019D000016241628162012124300172EE212438CA
:1019E00001630021416311218163FFF7FEFD00289F
:1019F00001D0FEF7C9FC10BD00400240E800002005
:101A000010B50E480E4908604B2040024860002186
:101A10000B488160C16001610C214161002181613D
:101A2000C16101620020064948620846FFF7D0FE06
:101A3000002801D0FEF7A8FC10BD000000380140CE
:101A40002C01002070477047704710B5FEF7B4FDB9
:101A500010BD00B595B0302109A8FEF7B8FB0020F5
:101A6000059006900790089014216846FEF7AFFB9A
:101A70000220099001200C9010200D900020119060
:101A800009A8FFF703F8002801D0FEF77DFC072026
:101A900005900020069007900890002105A8FEF709
:101AA000BFFE002801D0FEF76FFC0120009000204F
:101AB00002906846FEF7FEFD002801D0FEF764FCA8
:101AC00015B000BD7047000010B50248FFF718FBC5
:101AD00010BD0000A800002010B50268244B9842F9
:101AE00006D001239B07984202D0224B984205D191
:101AF00070241346A3431A464B681A431C4B984262
:101B000012D001239B0798420ED01A4B98420BD05B
:101B1000194B984208D0194B984205D0184B98425F
:101B200002D0184B984206D1032424021346A34343
:101B30001A46CB681A4380241346A3434C692343B7
:101B40001A4602608B68C3620B688362084B984236
:101B500008D00A4B984205D0094B984202D0094B55
:101B6000984201D10B6903630123436110BD00005A
:101B7000002C0140000400400020004000400140D3
:101B8000004401400048014010B50248FFF707FD3E
:101B900010BD0000E800002010B502460020002122
:101BA00009E08C000F23A3401340002B02D0012337
:101BB0008B401843491C0829F3D310BD818CC907F9
:101BC000C90F002908D001684968012252049143D5
:101BD000826A1143026851600222416A114002295F
:101BE00007D101684968D2039143C26A1143026870
:101BF00051600422416A1140042907D101684968F3
:101C000012049143026B1143026851600822416A39
:101C10001140082907D10168496812039143426BBA
:101C20001143026851601022416A1140102907D106
:101C30000168896812029143826B114302689160C6
:101C40002022416A1140202907D1016889681202C7
:101C50009143C26B1143026891604022416A114076
:101C6000402915D10168496892039143026C1143E0
:101C70000268516001221205016C914208D101688D
:101C80004968032252059143426C11430268516036
:101C90008022416A1140802907D1016849681203F6
:101CA0009143826C114302685160704738B5044615
:101CB0000020E067FEF77AFC0546206800680821EE
:101CC000084008280BD114482B46002289040090B4
:101CD000204600F015F9002801D0032038BD206807
:101CE00000680421084004280BD10B482B46002231
:101CF00009050090204600F003F9002801D00320D8
:101D0000ECE720206067A06700BF0021702001552C
:101D100000BF0020E2E70000FFFFFF01FEB5044620
:101D20000027002000902169A068084361690843EA
:101D3000E16908430290206800686A4908400299F6
:101D4000084321680860206840680321090388432C
:101D5000E168084321684860A0690290206A0299FE
:101D600008430290206880680B2109028843029989
:101D700008432168886000BF5B492068884217D10A
:101D80005A48006B8007800F002806D0012808D031
:101D9000022808D0032808D101E0002507E0022529
:101DA00005E0042503E0082501E0102500BF06E05A
:101DB0004F492068884201D1002500E0102500BF6E
:101DC0000121C903E06988424AD1002D06D0022DC5
:101DD00010D0042D16D0082D29D11FE0FEF7DCFD10
:101DE0000646720063685B08D0186168FEF77EF9EA
:101DF00087B21FE061684A083E4BD018FEF776F9BB
:101E000087B217E0FEF7DAFD0646720063685B08EA
:101E1000D0186168FEF76AF987B20BE061684A087A
:101E200001231B04D018FEF761F987B202E00120FC
:101E3000009000BF00BF102F0FD32F4887420CD84F
:101E40002D480F38384001903807400F019908435A
:101E5000019001982168C8603EE0012000903BE0BD
:101E6000002D06D0022D0ED0042D14D0082D25D122
:101E70001BE0FEF791FD064661684A089019FEF7DF
:101E800035F987B21DE061684A081C4BD018FEF78F
:101E90002DF987B215E0FEF791FD064661684A0804
:101EA0009019FEF723F987B20BE061684A08012315
:101EB000DB03D018FEF71AF987B202E00120009088
:101EC00000BF00BF102F05D30B48874202D82068FF
:101ED000C76001E001200090002020666066009845
:101EE000FEBD0000F369FFFF003801400010024012
:101EF000004400400024F400FFFF000000127A00BC
:101F0000FFB581B004460D4617460A9E4AE0701C94
:101F1000002847D0FEF74AFB0499401AB04201D886
:101F2000002E17D120680068FF21A1318843216865
:101F30000860206880684008400021688860202090
:101F40006067A06700BF00217020015500BF03201B
:101F500005B0F0BD2068006804210840002821D0A9
:101F60002068C06949020840C00A00281AD0084603
:101F70002168086220680068FF21A1318843216838
:101F80000860206880684008400021688860202040
:101F90006067A067E06700BF00217020015500BFA7
:101FA0000320D5E72068C0692840A84201D101205C
:101FB00000E00020B842AAD00020C9E7F8B582B2FC
:101FC0008BB2040C0D0C10465843002126465E438C
:101FD000370C36048019794116466E43370C3604A7
:101FE0008019794126466E438919F8BD10B500283D
:101FF00019DB1A4A03231B02D21883089B00D2580C
:102000008307DC0EFF23A3409A438B071B0E840734
:10201000E40EA3401A43114B032424021B19840825
:10202000A4001A5118E00E4A03071B0F083B9B0837
:102030009B00D2588307DC0EFF23A3409A438B07F3
:102040001B0E8407E40EA3401A43054B0407240F1C
:10205000083CA408A4001A5110BD000000E100E0F3
:102060001CED00E002E008C8121F08C1002AFAD1E6
:1020700070477047002001E001C1121F002AFBD108
:1020800070470000F8B505460E4600272E48007838
:1020900000281AD0012804D002283ED0032850D1AD
:1020A00027E0002E06D0701EC1B2284600F036FA96
:1020B000044604E00721284600F030FA0446662C66
:1020C00002DBA42C00DC01273BE0002D06D0691EBA
:1020D000C8B2314600F022FA044604E03146072037
:1020E00000F01CFA0446662C02DBA42C00DC01275D
:1020F00027E0072D06D0691CC8B2314600F00EFA61
:10210000044604E03146002000F008FA0446662C3C
:1021100002DBA42C00DC012713E0072E06D0701C84
:10212000C1B2284600F0FAF9044604E0002128462E
:1021300000F0F4F90446662C02DBA42C00DC012735
:1021400000BF00BF3846F8BD04000020F8B50546C2
:102150000E4600272A480078002818D0012804D00D
:10216000022838D0032848D123E0002E06D0701E64
:10217000C1B2284600F0D2F9044604E007212846FF
:1021800000F0CCF90446C82C00D1022735E0002D20
:1021900006D0691EC8B2314600F0C0F9044604E01A
:1021A0003146072000F0BAF90446C82C00D10227B6
:1021B00023E0072D06D0691CC8B2314600F0AEF905
:1021C000044604E03146002000F0A8F90446C82C7B
:1021D00000D1022711E0072E06D0701CC1B228469C
:1021E00000F09CF9044604E00021284600F096F92E
:1021F0000446C82C00D1022700BF00BF3846F8BDF6
:1022000004000020F8B5002220480178204800781A
:1022100000F0BEF900240DE0002508E0E9B2E0B2CC
:1022200000F07CF9642801D1E6B2EFB26D1C082DF4
:10223000F4DB641C082CEFDB002410E0002239469C
:10224000304600F0A5F90520FEF7A0F864223946D3
:10225000304600F09DF90520FEF798F8641CC82C64
:10226000ECDB00240AE000F031F96420FEF78EF880
:1022700000F040F96420FEF789F8641C032CF2DBBF
:1022800000F024F900F006F8F8BD00000800002076
:102290000700002010B5FF20F5301449088000F039
:1022A00015F96420FEF772F866220321042000F07D
:1022B0006FF96420FEF76AF865220421084600F0F1
:1022C00067F96420FEF762F864220521042000F01B
:1022D0005FF96420FEF75AF80320054908700220D0
:1022E0000449087000F008F810BD00000A00002042
:1022F000060000200400002070B500251EE0FDF758
:102300004DFF0446C017400F0019C010C000201A2E
:102310000F490870FDF742FF0446C017400F00192F
:10232000C010C000201A0B490870094801780948FC
:10233000007800F0F3F8002800D10125002DDED050
:10234000C822034801780348007800F021F970BDE5
:102350000800002007000020F8B5002416E0002542
:1023600011E0E9B2E0B200F0D9F80646642E09DBCC
:10237000A42E07DC701CC7B2E9B2E0B23A4600F006
:1023800007F900BF6D1C082DEBDB641C082CE6DB95
:10239000F8BD0000FEF71CF9FFF75BFBFFF79AFAA8
:1023A000FFF700FBFFF72CFBFFF7E0FA2048FEF7F2
:1023B00091FE00F099F96420FDF7E8FF0025002464
:1023C00009E0E0B200F0C0F94619E0B200F0AEF961
:1023D000301885B2641C062CF3DB2846FDF7E7FEB7
:1023E000FFF758FF23E000F0DBF8002000F08AF947
:1023F000012803D1002000F071F918E0012000F05D
:1024000081F9012803D1032000F068F90FE00220D0
:1024100000F078F9012802D100F060F907E003200C
:1024200000F070F9012802D1022000F057F9DAE734
:10243000A800002010B50022FF210548FEF7B0F8E3
:102440000122FF2109020248FEF7AAF810BD000090
:102450000004004870B504460D46FFF7EBFF01206D
:10246000A04081B201220648FEF79AF828460830BB
:102470000122824091B200220148FEF791F870BD1E
:102480000004004802490878FF21014A1170704792
:102490000500002070B5002413E000250EE0E9B22D
:1024A000E0B200F03BF8084909786431884204D171
:1024B000E9B2E0B2002200F06BF86D1C082DEEDBF3
:1024C000641C082CE9DB70BD0600002010B500205C
:1024D0000AE0002105E00022C300054C1B195A54F4
:1024E000491C0829F7DB401C0828F2DB10BD00005E
:1024F0006800002010B500200AE0002105E001225C
:10250000C300054C1B195A54491C0829F7DB401C11
:102510000828F2DB10BD0000680000200246C80059
:10252000014BC018805C70476800002010B515484A
:102530000078C0001449401814490978445C002C04
:1025400006D0124801780F480078FFF783FF01E0BA
:10255000FFF770FF0D480078401C0C4908700846D2
:102560000078082806D10020087006480078401C32
:102570000449087003480078082802D10020014966
:10258000087010BD0200002068000020010000203B
:1025900010B5CB00014C1B191A5410BD6800002067
:1025A000F8B5FEF703F845490968401A4449098817
:1025B00088425DD9FDF7FAFF40490860C8224148CA
:1025C000017841480078FFF7E3FF002600244BE044
:1025D000002542E0E9B2E0B2FFF7A0FF642838D15D
:1025E0000126FFF74FFF0746EAB2E1B200F008F913
:1025F00036490870E9B2E0B2FFF744FD012802D184
:10260000FFF700FE25E0E9B2E0B2FFF79FFD0228E8
:1026100017D12F480078401C2D490870FFF76CFE39
:102620002B490878C10F091849104900411A08D1EF
:1026300023490988642904DD214800881938204984
:102640000880FFF789FEE9B2E0B200F08BF8FFF7EF
:1026500021FF012E00D102E06D1C082DBADB00BF66
:10266000012E00D102E0641C082CB1DB00BF23E086
:10267000FDF79CFF17490968401A64281CD9FDF72B
:1026800095FF144908601448007800280AD10022F8
:102690000C4801780C480078FFF77AFF01200E49BA
:1026A000087009E0C8220748017807480078FFF75A
:1026B0006FFF002008490870F8BD00000C000020E2
:1026C0000A0000200800002007000020040000206D
:1026D00006000020100000201400002001490870AE
:1026E000704700000500002010B501210448FEF7E6
:1026F00034FF0120FDF74AFE0148FDF72FFE10BD13
:10270000E800002000B50346062B0BDA184600F05F
:102710000DF89900044A5158884201D2012000BDA9
:102720000020FCE7FF20FAE74400002001460629CC
:1027300003DA8800024A105870470248FCE700009C
:102740002C0000209F8601000146062903DA88003C
:10275000024A105870470248FCE70000440000207D
:102760009F86010070B504460D4624480078002875
:1027700015D0012822D0022802D003283CD12CE019
:10278000072D05D1642200212046FFF701FF05E057
:10279000681CC1B264222046FFF7FAFE2CE0002C30
:1027A00005D1642229460720FFF7F2FE05E0611EED
:1027B000C8B264222946FFF7EBFE1DE0002D05D1CB
:1027C000642207212046FFF7E3FE05E0681EC1B240
:1027D00064222046FFF7DCFE0EE0072C05D16422C0
:1027E00029460020FFF7D4FE05E0611CC8B2642230
:1027F0002946FFF7CDFE00BF00BF70BD04000020DA
:10280000F8B504460D4616461A480778002C10D035
:10281000012C04D0022C20D0032C28D113E0701EF0
:10282000C1B22846FFF77AFE652800D100E02746AE
:102830001DE0691EC8B23146FFF770FE652800D161
:1028400000E0274613E0691CC8B23146FFF766FE78
:10285000652800D100E0274609E0701CC1B2284677
:10286000FFF75CFE652800D100E0274600BF00BFEF
:102870003846F8BD04000020000000000000000001
:102880000102030406070809000000000102030416
:10289000B0280008000000202C0000006420000880
:1028A000DC2800082C0000208405000074200008AB
:1028B0000000000002FF04000000F401000000001E
:1028C0000000000000000000000000000400000004
:0C28D0000100000000127A00000000006F
:04000005080000BD32
:00000001FF
